:020000040000FA
:100000001004002095000000000000000000000027
:1000100000000000000000000000000000000000E0
:1000200000000000000000000000000000000000D0
:1000300000000000000000000000000000000000C0
:1000400099000000A1000000000000000000000076
:1000500000000000000000000000000000000000A0
:100060000000000000000000000000000000000090
:100070000000000000000000000000000000000080
:100080000348854600F05AF800480047BD000000CC
:10009000100400200448004707B500F007F807BD2A
:1000A00007B500F007F807BD8100000000201F49D8
:1000B0000870704701201E49087070471D482921AB
:1000C0004906086017208860002051210906086051
:1000D000A5200107086003201749086025E014489F
:1000E0000078012821D10020114908700F480078BC
:1000F0000521090708700D4800785121090608609C
:100100000A480078303015218906086020200860F0
:1001100006480078401C05490870084600786428A5
:1001200003D10020292149068860D8E7000000207B
:1001300001000020FFFF070000E100E0064C012560
:10014000064E05E0E36807CC2B430C3C984710347F
:10015000B442F7D3FFF798FF80010000A001000030
:1001600002E008C8121F08C1002AFAD17047704780
:10017000002001E001C1121F002AFBD170470000DE
:10018000A001000000000020040000006001000049
:10019000A4010000040000200C0400007001000015
:0401A000000000005B
:0400000500000000F7
:00000001FF
